{
  "_format": "hh-sol-artifact-1",
  "contractName": "OldTellor",
  "sourceName": "contracts/OldTellor.sol",
  "abi": [
    {
      "inputs": [],
      "stateMutability": "nonpayable",
      "type": "constructor"
    },
    {
      "inputs": [
        {
          "internalType": "address",
          "name": "_a",
          "type": "address"
        }
      ],
      "name": "balanceOf",
      "outputs": [
        {
          "internalType": "uint256",
          "name": "",
          "type": "uint256"
        }
      ],
      "stateMutability": "view",
      "type": "function"
    },
    {
      "inputs": [
        {
          "internalType": "address",
          "name": "",
          "type": "address"
        }
      ],
      "name": "balances",
      "outputs": [
        {
          "internalType": "uint256",
          "name": "",
          "type": "uint256"
        }
      ],
      "stateMutability": "view",
      "type": "function"
    },
    {
      "inputs": [
        {
          "internalType": "address",
          "name": "_newOwner",
          "type": "address"
        }
      ],
      "name": "changeOwner",
      "outputs": [],
      "stateMutability": "nonpayable",
      "type": "function"
    },
    {
      "inputs": [],
      "name": "owner",
      "outputs": [
        {
          "internalType": "address",
          "name": "",
          "type": "address"
        }
      ],
      "stateMutability": "view",
      "type": "function"
    },
    {
      "inputs": [
        {
          "internalType": "address",
          "name": "_a",
          "type": "address"
        },
        {
          "internalType": "uint256",
          "name": "_b",
          "type": "uint256"
        }
      ],
      "name": "setBalance",
      "outputs": [],
      "stateMutability": "nonpayable",
      "type": "function"
    }
  ],
  "bytecode": "0x608060405234801561001057600080fd5b50600180546001600160a01b0319163317905561028f806100326000396000f3fe608060405234801561001057600080fd5b50600436106100575760003560e01c806327e235e31461005c57806370a082311461008f5780638da5cb5b146100a2578063a6f9dae1146100cd578063e30443bc146100e2575b600080fd5b61007c61006a36600461020f565b60006020819052908152604090205481565b6040519081526020015b60405180910390f35b61007c61009d36600461020f565b6100f5565b6001546100b5906001600160a01b031681565b6040516001600160a01b039091168152602001610086565b6100e06100db36600461020f565b610114565b005b6100e06100f0366004610230565b610192565b6001600160a01b0381166000908152602081905260409020545b919050565b6001546001600160a01b031633146101635760405162461bcd60e51b815260206004820152600d60248201526c36bab9ba1031329037bbb732b960991b60448201526064015b60405180910390fd5b6001805473ffffffffffffffffffffffffffffffffffffffff19166001600160a01b0392909216919091179055565b6001546001600160a01b031633146101dc5760405162461bcd60e51b815260206004820152600d60248201526c36bab9ba1031329037bbb732b960991b604482015260640161015a565b6001600160a01b03909116600090815260208190526040902055565b80356001600160a01b038116811461010f57600080fd5b600060208284031215610220578081fd5b610229826101f8565b9392505050565b60008060408385031215610242578081fd5b61024b836101f8565b94602093909301359350505056fea2646970667358221220daebe101e644add37234a29c377950afcbe48e516b3e80809be3d48e2f7e5f5164736f6c63430008030033",
  "linkReferences": {},
  "deployedLinkReferences": {}
}