{
  "_format": "hh-sol-artifact-1",
  "contractName": "OldTellor",
  "sourceName": "contracts/OldTellor.sol",
  "abi": [
    {
      "inputs": [],
      "stateMutability": "nonpayable",
      "type": "constructor"
    },
    {
      "inputs": [
        {
          "internalType": "address",
          "name": "_a",
          "type": "address"
        }
      ],
      "name": "balanceOf",
      "outputs": [
        {
          "internalType": "uint256",
          "name": "",
          "type": "uint256"
        }
      ],
      "stateMutability": "view",
      "type": "function"
    },
    {
      "inputs": [
        {
          "internalType": "address",
          "name": "",
          "type": "address"
        }
      ],
      "name": "balances",
      "outputs": [
        {
          "internalType": "uint256",
          "name": "",
          "type": "uint256"
        }
      ],
      "stateMutability": "view",
      "type": "function"
    },
    {
      "inputs": [
        {
          "internalType": "address",
          "name": "_newOwner",
          "type": "address"
        }
      ],
      "name": "changeOwner",
      "outputs": [],
      "stateMutability": "nonpayable",
      "type": "function"
    },
    {
      "inputs": [],
      "name": "owner",
      "outputs": [
        {
          "internalType": "address",
          "name": "",
          "type": "address"
        }
      ],
      "stateMutability": "view",
      "type": "function"
    },
    {
      "inputs": [
        {
          "internalType": "address",
          "name": "_a",
          "type": "address"
        },
        {
          "internalType": "uint256",
          "name": "_b",
          "type": "uint256"
        }
      ],
      "name": "setBalance",
      "outputs": [],
      "stateMutability": "nonpayable",
      "type": "function"
    }
  ],
  "bytecode": "0x608060405234801561001057600080fd5b5033600160006101000a81548173ffffffffffffffffffffffffffffffffffffffff021916908373ffffffffffffffffffffffffffffffffffffffff160217905550610550806100616000396000f3fe608060405234801561001057600080fd5b50600436106100575760003560e01c806327e235e31461005c57806370a082311461008c5780638da5cb5b146100bc578063a6f9dae1146100da578063e30443bc146100f6575b600080fd5b610076600480360381019061007191906103a6565b610112565b60405161008391906103ec565b60405180910390f35b6100a660048036038101906100a191906103a6565b61012a565b6040516100b391906103ec565b60405180910390f35b6100c4610172565b6040516100d19190610416565b60405180910390f35b6100f460048036038101906100ef91906103a6565b610198565b005b610110600480360381019061010b919061045d565b61026c565b005b60006020528060005260406000206000915090505481565b60008060008373ffffffffffffffffffffffffffffffffffffffff1673ffffffffffffffffffffffffffffffffffffffff168152602001908152602001600020549050919050565b600160009054906101000a900473ffffffffffffffffffffffffffffffffffffffff1681565b600160009054906101000a900473ffffffffffffffffffffffffffffffffffffffff1673ffffffffffffffffffffffffffffffffffffffff163373ffffffffffffffffffffffffffffffffffffffff1614610228576040517f08c379a000000000000000000000000000000000000000000000000000000000815260040161021f906104fa565b60405180910390fd5b80600160006101000a81548173ffffffffffffffffffffffffffffffffffffffff021916908373ffffffffffffffffffffffffffffffffffffffff16021790555050565b600160009054906101000a900473ffffffffffffffffffffffffffffffffffffffff1673ffffffffffffffffffffffffffffffffffffffff163373ffffffffffffffffffffffffffffffffffffffff16146102fc576040517f08c379a00000000000000000000000000000000000000000000000000000000081526004016102f3906104fa565b60405180910390fd5b806000808473ffffffffffffffffffffffffffffffffffffffff1673ffffffffffffffffffffffffffffffffffffffff168152602001908152602001600020819055505050565b600080fd5b600073ffffffffffffffffffffffffffffffffffffffff82169050919050565b600061037382610348565b9050919050565b61038381610368565b811461038e57600080fd5b50565b6000813590506103a08161037a565b92915050565b6000602082840312156103bc576103bb610343565b5b60006103ca84828501610391565b91505092915050565b6000819050919050565b6103e6816103d3565b82525050565b600060208201905061040160008301846103dd565b92915050565b61041081610368565b82525050565b600060208201905061042b6000830184610407565b92915050565b61043a816103d3565b811461044557600080fd5b50565b60008135905061045781610431565b92915050565b6000806040838503121561047457610473610343565b5b600061048285828601610391565b925050602061049385828601610448565b9150509250929050565b600082825260208201905092915050565b7f6d757374206265206f776e657200000000000000000000000000000000000000600082015250565b60006104e4600d8361049d565b91506104ef826104ae565b602082019050919050565b60006020820190508181036000830152610513816104d7565b905091905056fea2646970667358221220c43ac95bf8ae553a516d52e5562ccb31dcd9c7f118bb0bf87d50a5a0131497f764736f6c63430008110033",
  "linkReferences": {},
  "deployedLinkReferences": {}
}